:100000000C94120B0C942F0B0C942F0B0C942F0BA5
:100010000C942F0B0C942F0B0C942F0B0C942F0B78
:100020000C942F0B0C942F0B0C942F0B0C942F0B68
:100030000C942F0B0C94A5110C942F0B0C942F0BDC
:100040000C942F0B0C942F0B0C942F0B0C942F0B48
:100050000C942F0B0C942F0B0C942F0B0C942F0B38
:100060000C942F0B0C942F0BE000F800F800FC0010
:10007000FC00FC00FC00F800F800E00001000700B4
:1000800007000F000F000F000F000700070001001E
:100090000000000000008000800080008000000060
:1000A000000000003C00FF00FF00FF00FF00FF0019
:1000B000FF00FF00FF003C00000000000000010006
:1000C000010001000100000000000000000000002D
:1000D0000000000000000000000000000000000020
:1000E0000000000000000000000000000000000010
:1000F0000000000000000000000000000000000000
:1001000000000000000000000000000000000000EF
:1001100000000000000000000000000000000000DF
:1001200000000000000000000000000000000000CF
:100130008000E000E000F000F000F000F000E000DF
:10014000E000800007001F001F003F003F003F004D
:100150003F001F001F00070000000000000000001B
:10016000000000008000E000F000F000F8007800DF
:10017000780078007800F800F800F000F000E00067
:1001800080000000000000000000000000000000EF
:10019000E000F800FC00FF00FF00FF00FF00070088
:1001A0000100000000000000000000000000070047
:1001B000FF00FF00FF00FF00FC00F800E00000006F
:1001C0000000FE00FF00FF00FF00FF00FF00FF0037
:1001D000FF00000000000000000000000000000020
:1001E00000000000FF00FF00FF00FF00FF00FF0015
:1001F000FF00FE00FF00FF00FF00FF00FF00FF0008
:10020000FF00FF00FF0000000000000000000000F1
:100210000000000000000000FF00FF00FF00FF00E2
:10022000FF00FF00FF00FF00FF00FF00FF00FF00D6
:10023000FF00FF00FF00FF00FF00000000000000C3
:10024000000000000000000000000000FF00FF00B0
:10025000FF00FF00FF00FF00FF00FF000100FF00A4
:10026000FF00FF00FF00FF00FF00FF00FF00000095
:10027000000000000000000000000000000000007E
:10028000FF00FF00FF00FF00FF00FF00FF00FF0076
:100290000000000003003F007F00FF00FF00FF00A0
:1002A000FF00E0000000000000000000000000006F
:1002B0000000C000FF00FF00FF00FF007F003F00C4
:1002C0000F0000000000000000000000000001001E
:1002D000030007000F001F003F003E003C003C00F1
:1002E0003C003E003F001F000F000700030001001C
:1002F00000000000000000000000000000000000FE
:100300000000000000000000800080008000C000AD
:10031000C000C000F000F000F000F800F80000009D
:100320000000000000000000000000000C000C00B5
:100330000C000C000E000E003F007F00FF00FF00CD
:10034000FF00FF00FF00FF00FF00FF00FF00FF00B5
:10035000FF0000000000000000000000000000009E
:10036000000000000000000000000000000000008D
:10037000FF00FF00FF00FF00FF00FF00FF00FF0085
:10038000FF00FF00FF000000000000000000000070
:10039000000000000000000000000000000000005D
:1003A00000000000FF00FF00FF00FF00FF00FF0053
:1003B000FF00FF00FF00FF00FF0000000000000042
:1003C000000000000000000000000000000000002D
:1003D0000000000000000000FF00FF00FF00FF0021
:1003E000FF00FF00FF00FF00FF00FF00FF00000014
:1003F00000000000000000000000000000000000FD
:10040000000000000000000000000000FF00FF00EE
:10041000FF00FF00FF00FF00FF00FF00FF00FF00E4
:10042000FF000000000000000000000000000000CD
:1004300000000000000000000000000000000000BC
:10044000FF00FF00FF00FF00FF00FF00FF00FF00B4
:10045000FF00FF00FF00000000000000000000009F
:10046000000000003000300030003000300030006C
:1004700030003C003F003F003F003F003F003F0096
:100480003F003F003F003F003F003C003000300095
:10049000300030003000300000000000000000009C
:1004A0008000C000C000F000F000F800F800F80084
:1004B000F800F800F800F800F800F000F000C000C4
:1004C000C000800000000000000000000000F000FC
:1004D000F8007F003F003F000F000F000F000F00EB
:1004E0000F003F003F007F00FF00FF00FF00FF0004
:1004F000FF00FF00FF00FF00FF00F800C000000049
:1005000007000300000000000000000000000000E1
:1005100000000000000000000000000000000700D4
:10052000FF00FF00FF00FF00FF00FF00FF00FF00D3
:100530007F0000000000000000000000000000003C
:1005400000000000000000000000000000000000AB
:100550000000E000FF00FF00FF00FF00FF007F0041
:100560003F00070000000000000000000000000045
:10057000000000000000000000000000000000007B
:10058000C000F800FE00FF00FF007F003F000700F2
:100590000300000000000000000000000000000058
:1005A000000000000000000000008000C000F80013
:1005B000FC007E003F001F00070003000100000058
:1005C00000000000000000000000000000008000AB
:1005D000000000000000C000E000F000FE00FF008E
:1005E000FF00F300F100F000F000F000F000F00078
:1005F000F000F000F000F000F000F000F000FC006F
:10060000FE00FF0030003E003F003F003F003F0083
:100610003F003F003F003F003F003F003F003F00E2
:100620003F003F003F003F003F003F003F003F00D2
:100630003F003F003F000000000000000000C0003D
:10064000C000E000F000F000F000F800F800F80052
:10065000F800F800F800F800F800F000F000F000F2
:10066000E000C000000000000000000070003E003C
:100670000F00070007000100010001000100010058
:100680000100070007000F007F00FF00FF00FF00D0
:10069000FF00FF00FF00FF00FF00F8000000000067
:1006A000000000000000000000000000000000004A
:1006B000000000000000000000008000E000FF00DB
:1006C000FF00FF007F003F001F001F000F0003001E
:1006D000000000000000000000000000000000001A
:1006E0002000200070007000F800F800FC00FF00FF
:1006F000FF00FF00FF00FF00FC00FC00F800F0001E
:10070000F000C000800000000000000000000000B9
:1007100000000000000000000000000000000000D9
:1007200007000F001F007F00FF00FF00FF00FF0019
:10073000FF00FF00FF00FF00FF00F8000000800046
:1007400080008000000000000000000000000000A9
:100750000000000000000000000000000700FF0093
:10076000FF00FF00FF00FF00FF00FF00FF001F0071
:10077000FF00FF00FF00FF00FF00FE00F800F80090
:10078000F000C0008000800080008000C000F00009
:10079000FE00FF00FF00FF00FF007F000F000700CA
:1007A0000000000007000F001F001F003F003F0077
:1007B0003F003F003F003F003F003F003F001F0061
:1007C0001F001F000F000F000300010001000000C8
:1007D0000000000000000000000000000000000019
:1007E0000000000000000000000000000000000009
:1007F00000000000000000000000C000F000F80051
:10080000F800F800F8000000000000000000000000
:1008100000000000000000000000000000000000D8
:10082000000000008000E000F000FC00FF00FF007E
:10083000FF00FF00FF00FF00FF00000000000000BD
:1008400000000000000000000000000000000000A8
:100850008000E000F8003E001F000700FF00FF00DE
:10086000FF00FF00FF00FF00FF00FF00FF0000008F
:10087000000000000000000000008000C000F00048
:10088000F8003E001F00030001000000000000000F
:10089000FF00FF00FF00FF00FF00FF00FF00FF0060
:1008A000FF00000000000000C000F000FC003F005E
:1008B0001F00030001000000000000000000000015
:1008C00000000000FF00FF00FF00FF00FF00FF002E
:1008D000FF00FF00FF00000000000000FF00FF001D
:1008E000FF00FE00FE00FE00FE00FE00FE00FE0017
:1008F000FE00FE00FE00FE00FF00FF00FF00FF0004
:10090000FF00FF00FF00FF00FF00FE00FE00FE00F2
:1009100003000300030003000300030003000300BF
:10092000030003000300030003000300FF00FF00B7
:10093000FF00FF00FF00FF00FF00FF00FF000300BB
:1009400003000300000000000000000000000000A1
:100950000000000000000000000000000000000097
:100960003F003F003F003F003F003F003F003F008F
:100970003F00000000000000000000000000000038
:10098000000000000000F000F800F800F800F80097
:10099000F800F800F800F800F800F800F800F80097
:1009A000F800F800F800F800F800F8000000000077
:1009B000000000008000F000FF003F003F003F000B
:1009C0003F003F003F003F003F003F003F003F002F
:1009D0003F003F003F003F003F003F000F0000008E
:1009E00000000000E000F800FF00FF00F900F80040
:1009F000F800F800F000F000F000F000F000E00077
:100A0000E000800080000000000000000000000006
:100A10000000000060007E007F007F007F007F00FC
:100A20007F007F00FF00FF00FF00FF00FF00FF00CE
:100A3000FF00FF00FF00FF00FF00FF00FF00FE00BF
:100A4000F800F000E00000000000000000000000DE
:100A50000000000000000000000000000000000096
:100A600001000100070007000F001F007F00FF00CA
:100A7000FF00FF00FF00FF00FF00FF00000000007C
:100A80000000000000000000000000000000000066
:100A90000000000000000000000000000000000056
:100AA0000000000001001F00FF00FF00FF00FF002A
:100AB000F000FC00FE00FE00FE00FE00FC00F00066
:100AC000E000E000C00000000000000000000000A6
:100AD0000000000000000000C000F000FF003F0028
:100AE0001F0003000000030003000F000F003F0081
:100AF0003F003F003F003F003F003F003E003E0000
:100B00003C003C001C001E000E000700030001001A
:100B100000000000000000000000000000000000D5
:100B200000000000000000000000000000000000C5
:100B300080008000C000C000C000F000F000F000A5
:100B4000700078003800380018001800000000001D
:100B50000000000000008000E000F000F800FC0051
:100B6000FC00FF00FF007F001F00070007000300DC
:100B70000000000000000000000000000000000075
:100B800000008000F000F800FF00FF00FF00FF0001
:100B9000FF00FF007F0007000000000000000000D1
:100BA0000000000000000000000000000000000045
:100BB00000000000F800FF00FF00FF00FF00FF0042
:100BC000FF00FF00FF00FF007800380038007800C9
:100BD0007800F800F800F800F800F000F000E000FD
:100BE0008000000000000000FF00FF00FF00FF0089
:100BF000FF00FF00FF00FF000100000000000000F8
:100C000000000000000001003F00FF00FF00FF00A7
:100C1000FF00FF00FF00FF00FC00E000FF00FF00FE
:100C2000FF00FF00FF00FF00FF00FF0000000000CA
:100C30000000000000000000000000000000FF00B5
:100C4000FF00FF00FF00FF00FF00FF00FF00FF00AC
:100C500003001F003F00FF00FF00FF00FF00FF0038
:100C6000FF00C000000000000000000000000000C5
:100C70008000FF00FF00FF00FF00FF00FF003F00BB
:100C80001F00010000000000000001000300070039
:100C900007001F001F003F003E003C003C003C00DE
:100CA0003C003E001F001F001F000700070003005C
:100CB00001000000000000000000C000F800F80083
:100CC000F800F800F800F800F800F800F800F80064
:100CD000F800F800F800F800F800F800F800F80054
:100CE000F800F800F800F800F800F800F000FF0045
:100CF000FF007F007F007F003F003F003F003F007C
:100D00003F003F003F003F003F003F003F003F00EB
:100D10003F003F00FF00FF00FF00FF000F00030047
:100D200007000100000000000000000000000000BB
:100D300000000000000000000000000000000000B3
:100D400000000000F000FF00FF00FF000F000000A7
:100D50000000000000000000000000000000000093
:100D60000000000000000000000000000000000083
:100D700000000000F000FF00FF00FF000F00000077
:100D80000000000000000000000000000000000063
:100D90000000000000000000000000000000000053
:100DA00000000000E000FF00FF00FF001F00000047
:100DB0000000000000000000000000000000000033
:100DC0000000000000000000000000000000000023
:100DD00000000000E000FE00FF00FF001F00010017
:100DE0000000000000000000000000000000000003
:100DF00000000000000000000000000000000000F3
:100E000000000000E000FE00FF007F001F00010066
:100E100000000000000000000000000000000000D2
:100E200000000000000000000000000000000000C2
:100E30000000000000003E003F003F0007000000EF
:100E400000000000000000000000000000000000A2
:100E50000000000000000000000000000000800012
:100E6000C000C000F000F000F000F800F8007800CA
:100E7000780078007800F800F800F000F000F0004A
:100E8000C00080000000000000000000E000F8004A
:100E9000FF00FF00FF00FF00FF00FF00FF00030056
:100EA000000000000000000000000000000007003B
:100EB000FF00FF00FF00FF00FF00FC00F00000004B
:100EC0007F00FF00FF00FF00FF00FF00FF00FF00AA
:100ED000FF00FE00F000E0008000000000000000C5
:100EE0000000E000FF00FF00FF00FF00FF007F00A8
:100EF0000F0000000000010003000F001F003F0072
:100F0000FF00FF00FF00FF00FF00FF00FF00FF00E9
:100F1000FE00FE00FF00FF00EF00CF00C300010055
:100F2000000000000000000000000000C000E00021
:100F3000F000F800FC00FF003F001F001F001F0032
:100F40001F003F00FF00FF00FF00FF00FF00FF0049
:100F5000FF00FF00FE00F000E0000000FE00FF00C8
:100F6000FF00FF00FF00FF00030000000000000082
:100F70000000000000000000000003001F00FF0050
:100F8000FF00FF00FF00FF00FF00FF00FF00FE006A
:100F90007F00FF00FF00FF00FF00FF00E0000000F7
:100FA0000000000000000000000000000000000041
:100FB000C000FF00FF00FF00FF00FF00FF007F00F8
:100FC0001F000300000000000300070007000F00DF
:100FD0000F003F003E003C003C003C003C003C0059
:100FE0003E003F000F000F000F0007000700030046
:100FF00000000000000000000000000000000000F1
:1010000080008000C000F000F000F000F8007800E0
:1010100078007800F800F800F000F000F000E00040
:101020008000800000000000000000000000F000D0
:10103000F800FF00FF00FF00FF00FF00FF000300BB
:101040000000000000000000000000000700FF009A
:10105000FF00FF00FF00FF00FF00F800F00080002D
:10106000FF00FF00FF00FF00FF00FF00FF00FF0088
:10107000FF00000000000000000000000000000071
:1010800000000100FF00FF00FF00FF00FF00FF0065
:10109000FF00FF000F003F00FF00FF00FF00FF0008
:1010A000FF00FF00FF00FC00000000000000000047
:1010B0000000000000000000FF00FF00FF00FF0034
:1010C000FF00FF00FF00FF00000000000100030020
:1010D0000F000F001F001F003F003F003F003E00B9
:1010E0003C003800380038003C00FF00FF00FF00E3
:1010F000FF00FF00FF00FF00FF003F0000000000B6
:1011000000000000000000000000000000000000DF
:1011100000000000000000008000E000FC00FF0074
:10112000FF00FF00FF00FF003F001F000300000062
:1011300000000000000000000000000000000000AF
:1011400000008000C000E000F800FC00FF007F000D
:101150007F003F001F0007000300010000000000A7
:1011600000000000300030003800380038001C005B
:101170001C000F000F00070007000700030003001A
:10118000000000000000000000000000000000005F
:101190000000000000000000F000FC00FE00030062
:1011A000010001000300FE00FC00F0000F003F0002
:1011B0007F00C00080008000C0007F003F000F0063
:1011C000000008000C000C00FE00FE00FF00000004
:1011D000000000008000800080008000FF00FF0011
:1011E000FF0080008000800010000C000600070057
:1011F00007000F00FF00FE003C0000008000C00060
:10120000E000F800EC00E700E300E000E000300060
:1012100000000400060003004300E700FF00FF0099
:10122000DE0080007000F000E000E000C000C000C0
:1012300061007F003F000F000000000080006000A0
:1012400010000800FC00FF00FF0000000E000D0071
:101250000C000C000C000C00FF00FF00FF000C0055
:101260004000780076007700F700E700E700C7004D
:10127000C70003006000E000E000C00080008000C4
:10128000810043003F001F00C000F000F800FC0098
:101290005E004600C600C300810001000F003F0051
:1012A0007F00E00080008000C0007F007F001F0002
:1012B0000F0007000700070007008700E7007F0016
:1012C0001F000300000000000000E000FC001F0001
:1012D00003000000000000003C007E00FF00F3005F
:1012E000E100C100C300FF003E001C003C007E0086
:1012F000FF00C10081008300C7007F007F003E0027
:10130000F800FE00FE008300010001000700FE005F
:10131000FC00F80080008100C3004300620032003E
:101320003E001F000F0001000300FF00FF00FF0050
:10133000030003000000000000000300FF00FF00A6
:1013400007003F003F00F800C000C0000300FF009E
:10135000FF0003000000000000000700070003007A
:1013600003000300FF00FF00FF0003000300030071
:101370000700C000FF00FF00FF00C000C000000029
:1013800000000000C000FF00FF00C00000000000DF
:101390000000070007001F00FF00FF000000000022
:1013A00000000000000000000000C000C000FF00BE
:1013B000FF00FF00C0000000000000000100FF006F
:1013C000FF00FF0081008100F100010007000F0015
:1013D000000000000100010007001F007F00F9006D
:1013E000E000E0001100090007000100010000001A
:1013F0000F00010001000100FF00FF00FF000100DD
:10140000010001000F008000FF00FF00FF008000CE
:101410008000870080008000E000F800000080006D
:101420008000E00090008800070007009F00FE0099
:10143000F800E00080008000000000000000800054
:101440008000FF00FF00FF0080008000000000001F
:10145000000000000000000000000000000000008C
:101460000000FE00FF00FF00FF00FF00FF00FE0085
:10147000000000000000000000000000000000006C
:10148000000000001E003F003F003F003F003F0003
:101490003F003F003F00FF00FF00FF00FF00FF0094
:1014A000FF00FF003F003F003F003F003F003F00C4
:1014B0003F003F001E000000000000000000000090
:1014C000000000000000000000001F003F003F007F
:1014D0003F003F003F001F00000000000000000030
:1014E00000000000000000000000000000000000FC
:1014F00000000000000000000000000000000000EC
:1015000000000000000000000000000000000000DB
:1015100000000000000000000000000000000000CB
:101520001E003F003F003F003F003F003F003F00E4
:101530003F003F003F003F003F003F003F003F00B3
:101540003F003F003F003F003F003F003F003F00A3
:101550001E0000000000000000000000000000006D
:10156000000000000000000000000000000000007B
:10157000000000000000000000000000000000006B
:10158000000000000000000000000000F80004005F
:10159000C60043004300030006000400F8000000FA
:1015A000000000000000FF000000FF009200920019
:1015B000820082000000FF00000000000000000028
:1015C000FF000000FF002400240020002000000095
:1015D000FF000000000000000000FF000000FF000E
:1015E00049004900080008000000FF00000000005A
:1015F000F8000E00030000000300020002000200D9
:101600000200000003000E00F80001000F001800A7
:1016100030006000C0008000C00060003000180092
:101620000F00010011241FBECFEFD8E0DEBFCDBFF9
:1016300011E0A0E0B1E0EEE8F9E202C005900D9201
:10164000A030B107D9F711E0A0E0B1E001C01D92D0
:10165000A532B107E1F70E94B4120C94C5140C94A2
:1016600000008FB7F8943D9A91EA9A95F1F700C07F
:101670003D9895E19A95F1F700C096B18FBF8CE83F
:101680008A95F1F781E095FD80E008959FB7F89481
:101690003D9A00C081113D9885E18A95F1F700C01F
:1016A0003D989FBF0895EF92FF920F931F93CF93A2
:1016B000DF9300E010E0EE24FF24E394C82FD0E095
:1016C000C701002E02C0880F991F0A94E2F79C01FF
:1016D0002C233D238217930721F481E00E94460BBF
:1016E00003C080E00E94460B0F5F1F4F08301105BA
:1016F00039F7DF91CF911F910F91FF90EF900895EF
:101700009FB7F8943D9A00C03D9824E02A95F1F7E0
:10171000000086B12FE02A95F1F79FBF90E080721C
:1017200090709595879595958795959587959595BD
:1017300087959595879508951F93CF93DF93C0E084
:10174000D0E010E00E94800B90E00C2E02C0880FC9
:10175000991F0A94E2F7182B2196C830D10591F70A
:10176000812FDF91CF911F910895CF930E94310B6C
:10177000813019F58CEC0E94530B84E40E94530BCA
:101780008FEE99E4A2E081509040A040E1F700C0C4
:1017900000000E94310B8CEC0E94530B8EEB0E94D8
:1017A000530B0E949C0BC82F0E949C0B382F20E0EB
:1017B0008C2F90E0822B932B02C080E090E0CF91A1
:1017C0000895929582958F7089279F708927089533
:1017D000EF92FF921F93CF93DF93CDB7DEB7289799
:1017E0000FB6F894DEBF0FBECDBF0E94310B813023
:1017F000C9F483E30E94530B0E94310B18E00F2EB3
:10180000F6ECEF2EFF24F02D0E949C0BF701808355
:1018100083EC99E00197F1F700C000001150A1F7A7
:10182000898500C028960FB6F894DEBF0FBECDBFE5
:10183000DF91CF911F91FF90EF90089584B18C6359
:1018400084B980E58CBD08958EBD0DB407FEFDCF33
:101850008EB50895CF93DF93D42FCFB7F8942A98FD
:10186000860F0E94240C8D2F0E94240C2A9ACFBF31
:10187000DF91CF910895CF93CFB7F8942A980E9423
:10188000240C2A9ACFBFCF9108951F93CF93DF9353
:10189000C82FD62F142F60E04FEF0E942A0C11237F
:1018A00059F0E1E0F0E09F0102C0220F331FDA950A
:1018B000E2F7482F422B0BC021E030E0B90102C013
:1018C000660F771FDA95E2F76095482F46238C2F35
:1018D00060E20E942A0CDF91CF911F910895CF936F
:1018E000C82F299880E060E04C2F0E94450C299A6F
:1018F00085E08A95F1F7CC2309F429988EE28A9540
:10190000F1F700C0CF910895CF93C82F2A9880EAAD
:101910000E94240C8C2F0E94240C2A9ACF910895A7
:101920000E94840C80E00E946F0C81E00E946F0C8A
:1019300008952A9881E60E94240C8FEF0E94240CBF
:101940002A9A0895CF93C82F229A219A20982A98EC
:10195000299885EA9EE00197F1F700C0000081E137
:1019600060E041E00E94450C4C2F417080E064E053
:101970000E94450C4C2F427080E065E00E94450CAF
:101980004C2F447080E066E00E94450C80E061E0EE
:1019900041E00E94450C83EF91E00197F1F700C010
:1019A0000000CF91089583E085B9000028980000D9
:1019B0002998089582E085B9000028980000289AA7
:1019C000089598E0882314F0289801C0289A000010
:1019D000299A00002998880F9150A1F72098289AF9
:1019E0000000299A0000189B03C081E08093240125
:1019F00029982898209A08952098289A98E080E0BD
:101A0000880F299A00001899816029980000915048
:101A1000B9F72898209A0000299A0000299808957B
:101A2000CF93DF93D82FC62F0E94D30C80ED0E9456
:101A3000E10C8D2F0E94E10C8C2F0E94E10C0E9482
:101A4000DA0CDF91CF910895CF93C82F0E94D30C69
:101A500080ED0E94E10C8C2F0E94E10C0E94D30CBF
:101A600081ED0E94E10C0E94FC0CC82F0E94DA0C50
:101A70008C2FCF91089584B1836084B980E00E9457
:101A8000240D682F6F7780E00E94100D82E00E9485
:101A9000240D682F6F7B82E00E94100D0895CF9374
:101AA000DF93EC0180E00E94240D888381E00E9496
:101AB000240D898382E00E94240D8A83DF91CF91D7
:101AC0000895FC018081982F92959F70990F292F7E
:101AD000220F220F920F8F70980F90838181982F81
:101AE00092959F70990F292F220F220F920F8F70BE
:101AF000980F91838281982F92959F70990F292F2B
:101B0000220F220F920F8F70980F928308958BB936
:101B1000439A0000449A00004498439800000895B6
:101B20008BB90000449A86E08A95F1F700C044988A
:101B300086E08A95F1F700C00895882321F08FE3AD
:101B40000E94900D08958EE30E94900D0895CF930A
:101B5000C82F803418F44098419A03C0409A4198A5
:101B6000C054862F86958695869588540E94900D40
:101B70008C2F805C0E94900DCF9108951F93CF937E
:101B8000DF93D82F4098419818EB812F0E94900D39
:101B9000C0E48D2F0E94870DC150D9F71F5F103C04
:101BA000A1F7DF91CF911F9108958FEF8AB987B187
:101BB0008F6187B980E00E94BE0D80EC0E94900D7D
:101BC00081E00E949D0D08951BB81AB8429A439A6D
:101BD0000000449A000044980000449A00C000C0ED
:101BE000000089B10000449808951F93CF93DF93BC
:101BF000D82FC62F0E94A70D0E94E40D2C2F27700E
:101C000041E050E0BA0102C0660F771F2A95E2F763
:101C1000182F162B4398429800008FEF8AB98D2F0A
:101C20006C2F0E94A70D812F0E94870DDF91CF910D
:101C30001F9108959F92AF92BF92CF92DF92EF9241
:101C4000FF920F931F93CF93DF93062FAA24BB24F9
:101C5000982E242F30E08CE390E0289F6001299F8C
:101C6000D00C389FD00C11241CC0812F602F0E94F3
:101C7000A70DF601EC0FFD1FEE0FFF1FE859FF4FF8
:101C800084910E94870D21961F5FEC16FD0669F76F
:101C90008AE090E0A80EB91E085F9CE3A916B10483
:101CA00051F00F2EFAE0EF2EFF24F02DEA0CFB1C72
:101CB000192DE501DACFDF91CF911F910F91FF90A0
:101CC000EF90DF90CF90BF90AF909F9008958F924C
:101CD0009F92AF92BF92CF92DF92EF92FF920F93BB
:101CE0001F93CF93DF93182F062F269526952695C1
:101CF000A22EBB241A141B04B4F01FC0E4018C2FC5
:101D0000810F602F0E94A70D80E00E94870D219611
:101D1000CE15DF05A4F30894C11CD11C085FCA14BA
:101D2000DB043CF00AC0CC24DD24E42EFF2488240C
:101D300099241E141F0414F3EECFDF91CF911F914D
:101D40000F91FF90EF90DF90CF90BF90AF909F905A
:101D50008F9008957F928F929F92AF92BF92CF9271
:101D6000DF92EF92FF920F931F93CF93DF93A82EF2
:101D7000E62EB42E122FD02E722E76947694769470
:101D8000A9F549C0103159F01034F1F4F401EC0F09
:101D9000F11DEE0FFF1FE85AFE4FD49115C08D2D97
:101DA00090E0880F991F880F991F9C01220F331F05
:101DB000220F331F820F931F8C0F911DFC01EE0F1A
:101DC000FF1FE856FE4ED4918F2D8C0F6E2D0E9472
:101DD000A70D8D2F0E94870DCF5FC01799F64C2F4E
:101DE000C39488E0E80EC71471F415C0CC2440E019
:101DF000202F30E080ED90E0289F4001299F900C3B
:101E0000389F900C1124BB2059F3042F0B0DC42FC5
:101E1000FA2CF41AB7CFDF91CF911F910F91FF9059
:101E2000EF90DF90CF90BF90AF909F908F907F907A
:101E30000895AF92BF92CF92DF92EF92FF920F93ED
:101E40001F93CF93DF93B82ED62FC42EA22EA69425
:101E5000A694A69409F048C051C00230E1F00330C6
:101E600028F4002341F0013069F50DC00330D9F0AA
:101E7000043041F520C0EC2FF0E0EE0FFF1FE85DCD
:101E8000FC4E14911FC0EC2FF0E0EE0FFF1FE45446
:101E9000FC4E149117C0EC2FF0E0EE0FFF1FE05B3B
:101EA000FB4E14910FC0EC2FF0E0EE0FFF1FE4513A
:101EB000FB4E149107C0EC2FF0E0EE0FFF1FE85728
:101EC000FA4E14918E2D8C0F6D2F0E94A70D812F2D
:101ED0000E94870DCF5FCF1509F0BFCF8C2FD39411
:101EE000D85FDA1419F40AC0DD2480E0CC20B9F3FD
:101EF000F82EFC0CC82FEB2CE81AAFCFDF91CF9156
:101F00001F910F91FF90EF90DF90CF90BF90AF9017
:101F1000089585E08093810081E080936F0087E1E0
:101F20009CEF9093850080938400089584B184B9D8
:101F300085B185B908950E94990C80931E01282FC0
:101F400022952F7030E02530310589F1263031059A
:101F50008CF422303105F9F02330310524F421309E
:101F60003105C1F514C023303105C9F024303105E5
:101F700089F519C02730310511F127303105DCF022
:101F80002830310501F12930310521F520C08F704D
:101F9000809317011FC08F70809316011BC08F7034
:101FA0008093150117C08F708093140113C08F7038
:101FB000809313010FC08F70809312010BC08F703C
:101FC0008093110107C08F708093100103C08F7040
:101FD00080930F019091170180E02091160130E06D
:101FE00022953295307F3227207F3227822B932B08
:101FF0002091150130E0822B932B90930C0180935C
:102000000B019091140180E02091130130E02295A2
:102010003295307F3227207F3227822B932B2091DD
:10202000120130E0822B932B90930A0180930901D7
:102030009091110180E02091100130E022953295BD
:10204000307F3227207F3227822B932B20910F0164
:1020500030E0822B932B9093080180930701089521
:102060008F929F92AF92BF92EF92FF920F93CF9376
:10207000C82F7B0180911D01813061F480E00E94B6
:10208000BE0D10921D0180E068E14DE020E304E008
:102090000E94190F80E068E14DE020E304E00E9417
:1020A000190FCC2341F480E060E045E220E100E03C
:1020B0000E94190F1DC0C13041F480E060E045E28C
:1020C00020E101E00E94190F13C0C23041F480E00A
:1020D00060E045E220E102E00E94190F09C0C33030
:1020E00039F480E060E045E220E103E00E94190F4E
:1020F000F3FE0EC08DE068E14AE128E103E00E94B2
:10210000190FE094F0948FEF98E0E822F92207C0CD
:102110008DE068E14AE128E102E00E94190FC70161
:10212000929582958F7089279F7089276AE070E069
:102130000E94B114062FC82F87E260E04AE120E434
:102140000E94AA0E82E460E04AE120E40C2F0E9483
:10215000AA0E8CE560E141E00E941A0EB7016170A1
:10216000707080E090E00E94B41320E030E040E81E
:102170005DE30E9442144B015C01B70176956795BF
:102180006170707080E090E00E94B41320E030E055
:1021900040E05EE30E9442149B01AC01C501B40122
:1021A0000E9424134B015C01B701769567957695E3
:1021B00067956170707080E090E00E94B41320E039
:1021C00030E040E85EE30E9442149B01AC01C5018F
:1021D000B4010E9424134B015C01F694E794F69439
:1021E000E794F694E79491E0E922FF24B70180E0B8
:1021F00090E00E94B41320E030E040E05FE30E94F2
:1022000042149B01AC01C501B4010E94241320E0DB
:1022100030E040E251E40E9442140E948813062FED
:1022200086E660E04AE120E40E94AA0ECF910F9179
:10223000FF90EF90BF90AF909F908F900895CF92B6
:10224000DF92EF92FF920F93CF9380911D0188232D
:1022500029F40E94BE0D81E080931D010F2EF2E053
:10226000CF2EF1E0DF2EF02D80910201CAE06C2F1D
:102270000E94A514082F80E060E04AE120E40E945B
:10228000AA0E809102016C2F0E94A5148BE160E0E0
:102290004AE120E4092F0E94AA0EF60182917F01F3
:1022A0006C2F0E94A514082F8BE460E04AE120E423
:1022B0000E94AA0EF70180816C2F0E94A51486E669
:1022C00060E04AE120E4092F0E94AA0E0F2EFEEFE3
:1022D000EF2EFFEFFF2EF02DEC0CFD1CF70180819F
:1022E0006C2F0E94A514082F85E360E04AE020E1EE
:1022F0000E94AA0EF70180816C2F0E94A51480E431
:1023000060E04AE020E1092F0E94AA0E80911C01A2
:1023100090E09C012170307080FF04C021303105B5
:1023200069F406C08BE360E140E00E941A0E06C02B
:102330008BE360E14AE020E30E94670ECF910F91AA
:10234000FF90EF90DF90CF9008951F920F920FB6FD
:102350000F9211242F933F934F935F936F937F932B
:102360008F939F93AF93BF93EF93FF9380911C0143
:102370008F5F80931C010E949B0F80911C0188310C
:1023800019F410921C0104C0893210F010921C0143
:102390008BE09EEF9093850080938400FF91EF91F6
:1023A000BF91AF919F918F917F916F915F914F916D
:1023B0003F912F910F900FBE0F901F901895CF93C4
:1023C000DF9380911C01893050F4C0E0D1E0CE0150
:1023D0000E944F0DCE010E94610D0E941F1180913D
:1023E0001C018950873058F40E94B50B682F8093E8
:1023F0000D0190930E0180E0792F0E9430108091A2
:102400001C018151873038F460910B0170910C01EF
:1024100081E00E94301080911C018951873038F48E
:102420006091090170910A0180E00E943010809152
:102430001C018152873038F46091070170910801C6
:1024400081E00E943010DF91CF910895CF93F894EE
:102450001E990BC080911A01813039F410921A0133
:10246000809118018F5F809318011F992AC0809175
:102470001B01813031F580911801813079F0813074
:1024800018F08230F1F414C0809100018F5F8093C6
:1024900000018C33B0F01092000113C08091010153
:1024A0008F5F809301018C3360F01092010109C0AD
:1024B000809102018F5F80930201883110F01092A9
:1024C000020180911801813061F0813018F0823072
:1024D000A9F40EC085E360E044E120E10E94670EAC
:1024E0000DC08BE460E044E320E40E94670E06C068
:1024F00080E060E046E320E40E94670E0E941F1126
:1025000080911801833070F110921A011092190114
:102510001092180110921C0180910001CAE06C2FEA
:102520000E94A514682F6295607F692B80E00E944D
:10253000100D809101016C2F0E94A514682F6295E7
:10254000607F692B81E00E94100D809102016C2F49
:102550000E94A514682F6295607F692B82E00E941B
:10256000100D7894CF9108950E94960F0E943B0D14
:102570000E94D50D80E00E94BE0D0E941E0C83E0DB
:102580000E94A20C81E00E946F0C0E94890F83B10F
:1025900023B1881F8827881F90E030E0022E232F68
:1025A000000C221F330B000C221F331F82239323A6
:1025B000009781F480E060E00E94100D81E060E00F
:1025C0000E94100D82E060E00E94100D10921B012D
:1025D00010921A01789411E00F2EF4E6FF2EF02DE0
:1025E000C0E0D1E00AE11F9B02C010931B011E9BBB
:1025F00002C010931A01809119018823F9F41F99E0
:1026000008C080911B01813021F410921B010093BE
:102610001C011E9910C080911A01813061F4109242
:102620001A01F0921C0110931901CE010E944F0D66
:10263000CE010E94610D0E94DF11D5CF813099F645
:102640000E942612D0CF5058BB27AA270ED0E0C038
:10265000D1D030F0D6D020F031F49F3F11F41EF4E9
:10266000C6C00EF4E095E7FBBCC0E92FE2D080F3D2
:10267000BA17620773078407950718F071F49EF57F
:10268000FAC00EF4E0950B2EBA2FA02D0B01B90164
:1026900090010C01CA01A0011124FF27591B99F0D8
:1026A000593F50F4503E68F11A16F040A22F232FE4
:1026B000342F4427585FF3CF469537952795A79534
:1026C000F0405395C9F77EF41F16BA0B620B730BDB
:1026D000840BBAF09150A1F0FF0FBB1F661F771F4C
:1026E000881FC2F70EC0BA0F621F731F841F48F401
:1026F000879577956795B795F7959E3F08F0B3CF87
:102700009395880F08F09927EE0F97958795089570
:1027100098D088F09F5790F0B92F9927B751A0F023
:10272000D1F0660F771F881F991F1AF0BA95C9F765
:1027300012C0B13081F09FD0B1E008959CC0672FE6
:10274000782F8827B85F39F0B93FCCF38695779515
:102750006795B395D9F73EF49095809570956195FE
:102760007F4F8F4F9F4F0895E89409C097FB3EF429
:1027700090958095709561957F4F8F4F9F4F9923CE
:10278000A9F0F92F96E9BB279395F695879577954C
:102790006795B795F111F8CFFAF4BB0F11F460FF0C
:1027A0001BC06F5F7F4F8F4F9F4F16C0882311F064
:1027B00096E911C0772321F09EE8872F762F05C078
:1027C000662371F096E8862F70E060E02AF09A9513
:1027D000660F771F881FDAF7880F9695879597F908
:1027E000089597F99F6780E870E060E008959FEF93
:1027F00080EC089500240A94161617061806090698
:10280000089500240A941216130614060506089566
:10281000092E0394000C11F4882352F0BB0F40F4EE
:10282000BF2B11F460FF04C06F5F7F4F8F4F9F4F2E
:10283000089557FD9058440F551F59F05F3F71F0B0
:102840004795880F97FB991F61F09F3F79F0879517
:102850000895121613061406551FF2CF4695F1DFA0
:1028600008C0161617061806991FF1CF8695710530
:10287000610508940895E894BB2766277727CB0164
:1028800097F908950BD0C4CFB5DF28F0BADF18F060
:10289000952309F0A6CFABCF1124EECFCADFA0F36A
:1028A000959FD1F3950F50E0551F629FF001729FE5
:1028B000BB27F00DB11D639FAA27F00DB11DAA1F04
:1028C000649F6627B00DA11D661F829F2227B00D51
:1028D000A11D621F739FB00DA11D621F839FA00DDC
:1028E000611D221F749F3327A00D611D231F849F2C
:1028F000600D211D822F762F6A2F11249F57504083
:102900008AF0E1F088234AF0EE0FFF1FBB1F661F1D
:10291000771F881F91505040A9F79E3F510570F0D6
:1029200060CFAACF5F3FECF3983EDCF386957795B6
:102930006795B795F795E7959F5FC1F7FE2B880FD1
:10294000911D9695879597F90895991B79E004C094
:10295000991F961708F0961B881F7A95C9F78095DE
:102960000895AA1BBB1B51E107C0AA1FBB1FA617D6
:10297000B70710F0A61BB70B881F991F5A95A9F728
:0E29800080959095BC01CD010895F894FFCF8D
:00000001FF
