:100000000C9434000C9451000C9451000C94510049
:100010000C9451000C9451000C9451000C9451001C
:100020000C9451000C9451000C9451000C9451000C
:100030000C9451000C9451000C9451000C945100FC
:100040000C9451000C9451000C9451000C945100EC
:100050000C9451000C9451000C9451000C945100DC
:100060000C9451000C94510011241FBECFEFD8E026
:10007000DEBFCDBF11E0A0E0B1E0EEEFF6E002C0E0
:1000800005900D92A030B107D9F711E0A0E0B1E0E2
:1000900001C01D92A130B107E1F70E946B030C94DF
:1000A0007D030C9400008FB7F894549A91EA9A95C6
:1000B000F1F700C0549895E19A95F1F700C099B115
:1000C0008FBF8CE88A95F1F781E094FD80E0089578
:1000D0008FB7F894539A91EA9A95F1F700C0539824
:1000E00095E19A95F1F700C099B18FBF8CE88A9598
:1000F000F1F781E093FD80E008958FB7F894529A6C
:1001000091EA9A95F1F700C0529895E19A95F1F726
:1001100000C099B18FBF8CE88A95F1F781E092FD1C
:1001200080E008959FB7F894549A00C081115498C4
:1001300085E18A95F1F700C054989FBF08959FB755
:10014000F894539A00C08111539885E18A95F1F78C
:1001500000C053989FBF08959FB7F894529A00C06B
:100160008111529885E18A95F1F700C052989FBF9E
:100170000895EF92FF920F931F93CF93DF9300E0C8
:1001800010E0EE24FF24E394C82FD0E0C701002E36
:1001900002C0880F991F0A94E2F79C012C233D238B
:1001A0008217930721F481E00E94920003C080E04F
:1001B0000E9492000F5F1F4F0830110539F7DF9141
:1001C000CF911F910F91FF90EF900895EF92FF92C2
:1001D0000F931F93CF93DF9300E010E0EE24FF24F2
:1001E000E394C82FD0E0C701002E02C0880F991FEA
:1001F0000A94E2F79C012C233D238217930721F4F4
:1002000081E00E949F0003C080E00E949F000F5F7A
:100210001F4F0830110539F7DF91CF911F910F91D2
:10022000FF90EF900895EF92FF920F931F93CF935B
:10023000DF9300E010E0EE24FF24E394C82FD0E029
:10024000C701002E02C0880F991F0A94E2F79C0193
:100250002C233D238217930721F481E00E94AC00F8
:1002600003C080E00E94AC000F5F1F4F08301105F3
:1002700039F7DF91CF911F910F91FF90EF90089583
:100280009FB7F894549A00C0549824E02A95F1F747
:10029000000089B12FE02A95F1F79FBF90E08071AF
:1002A0009070959587959595879595958795959552
:1002B000879508959FB7F894539A00C0539824E007
:1002C0002A95F1F7000089B12FE02A95F1F79FBF39
:1002D00090E0887090709595879595958795959500
:1002E000879508959FB7F894529A00C0529824E0D9
:1002F0002A95F1F7000089B12FE02A95F1F79FBF09
:1003000090E0847090709595879595958795089560
:100310001F93CF93DF93C0E0D0E010E00E94400134
:1003200090E00C2E02C0880F991F0A94E2F7182B58
:100330002196C830D10591F7812FDF91CF911F9180
:1003400008951F93CF93DF93C0E0D0E010E00E94A8
:100350005A0190E00C2E02C0880F991F0A94E2F710
:10036000182B2196C830D10591F7812FDF91CF91BD
:100370001F9108951F93CF93DF93C0E0D0E010E06A
:100380000E94720190E00C2E02C0880F991F0A94FF
:10039000E2F7182B2196C830D10591F7812FDF9114
:1003A000CF911F910895CF930E945300813019F58A
:1003B0008CEC0E94B90084E40E94B9008FEE99E4AD
:1003C000A2E081509040A040E1F700C000000E94F0
:1003D00053008CEC0E94B9008EEB0E94B9000E9481
:1003E0008801C82F0E948801382F20E08C2F90E0D0
:1003F000822B932B02C080E090E0CF910895CF93A1
:100400000E946800813019F58CEC0E94E60084E4BB
:100410000E94E6008FEE99E4A2E081509040A04057
:10042000E1F700C000000E9468008CEC0E94E6002A
:100430008EEB0E94E6000E94A101C82F0E94A1013C
:10044000382F20E08C2F90E0822B932B02C080E08D
:1004500090E0CF910895CF930E947D00813019F5EF
:100460008CEC0E94130184E40E9413018FEE99E446
:10047000A2E081509040A040E1F700C000000E943F
:100480007D008CEC0E9413018EEB0E9413010E94F0
:10049000BA01C82F0E94BA01382F20E08C2F90E0BB
:1004A000822B932B02C080E090E0CF91089584B11D
:1004B0008C6384B980E58CBD08958EBD0DB407FEB4
:1004C000FDCF8EB50895CF93DF93D42FCFB7F89497
:1004D0002A98860F0E945D028D2F0E945D022A9A43
:1004E000CFBFDF91CF910895CF93CFB7F8942A98DB
:1004F0000E945D022A9ACFBFCF9108951F93CF9398
:10050000DF93C82FD62F142F60E04FEF0E946302B5
:10051000112359F0E1E0F0E09F0102C0220F331FE8
:10052000DA95E2F7482F422B0BC021E030E0B90109
:1005300002C0660F771FDA95E2F76095482F4623D1
:100540008C2F60E20E946302DF91CF911F9108958A
:10055000CF93C82F409880E060E04C2F0E947E022D
:10056000409A85E08A95F1F7CC2309F440988EE211
:100570008A95F1F700C0CF910895CF93C82F2A989C
:1005800080EA0E945D028C2F0E945D022A9ACF9120
:1005900008950E94BD0280E00E94A80281E00E94AE
:1005A000A80208952A9881E60E945D028FEF0E94BA
:1005B0005D022A9A0895CF93C82F229A389A2098DC
:1005C0002A98409885EA9EE00197F1F700C0000064
:1005D00081E160E041E00E947E024C2F417080E0AA
:1005E00064E00E947E024C2F427080E065E00E9431
:1005F0007E024C2F447080E066E00E947E0280E024
:1006000061E041E00E947E0283EF91E00197F1F703
:1006100000C00000CF910895EF92FF920F931F93B7
:10062000CF93DF9300D00F92CDB7DEB719821A8235
:100630001B82833059F0843019F0823099F40CC059
:100640000E94D30140E350E220E10EC00E94FF016E
:1006500040E650E520E408C00E942B0240E950E843
:1006600020E702C080E090E0392F3F70232B2983E0
:100670009C01359527953595279535952795359581
:1006800027952F70522B5A838F70482B4B838E01E6
:100690000F5F1F4FEE24FF246894E2F8EC0EFD1E5E
:1006A00081EE0E947402F80181918F010E94C902BB
:1006B00087EA91E60197F1F700C000000E151F05CB
:1006C00079F70F900F900F90DF91CF911F910F91BD
:1006D000FF90EF9008950E94570283E00E94DB0292
:1006E00081E00E94A80284E00E940C0383E00E9443
:0E06F0000C0382E00E940C03F6CFF894FFCFBB
:00000001FF
